:04000000A9EF7DF0F7
:10FAF900800F810F820F830F840F890F8A0F8B0F5D
:10FB09008C0F8D0F920F930F940F950F960F431231
:10FB19000A020132221202270E366E000E376E6D6E
:10FB2900EC7EF0260E366E000E376E6DEC7EF025FB
:10FB39000E366E000E376E6DEC7EF0240E366E00BA
:10FB49000E376E6DEC7EF01200F90EF66EFA0EF7B6
:10FB59006E000EF86E00EE01F010EE27F00900F5C8
:10FB6900CFEEFFE550E150FAE100EE3DF0080EEE70
:10FB79006AE806FDE1000EF86E0001AAEF7EF03298
:10FB8900503310D8B4CBEF7DF0CDEF7DF0DEEF7DB3
:10FB9900F032C0D9FF33C0DAFFDF30E832E832078C
:10FBA9000B346E070E3464DCEF7DF0DEEF7DF0E0A0
:10FBB900EF7DF0F6EF7DF032C028F033C029F0F682
:10FBC900EC7EF0356E32C028F033C029F032C0D94E
:10FBD900FF33C0DAFF000EDFBE010E2A6E6AEC7F2A
:10FBE900F0356E120032503310D8A4FEEF7DF000CC
:10FBF900EF7EF002EF7EF031EF7EF042C035F03259
:10FC0900C0D9FF33C0DAFFDF500F0B346E355034E3
:10FC190018F80B3418356E32C0D9FF33C0DAFFDF5C
:10FC290038070B346E34463446344635503418C7D9
:10FC39000B3418356E359C32C0D9FF33C0DAFFDF7B
:10FC4900AE02D0358E01D0359E350E286E000E29B4
:10FC59006E000E2A6E6AEC7FF0120032503310D813
:10FC6900A439EF7EF03BEF7EF03DEF7EF06CEF7E46
:10FC7900F043C035F032C0D9FF33C0DAFFDF500F8F
:10FC89000B346E35503418F80B3418356E32C0D930
:10FC9900FF33C0DAFFDF38070B346E34463446349D
:10FCA9004635503418C70B3418356E359C32C0D9D7
:10FCB900FF33C0DAFFDFAE02D0358E01D0359E3575
:10FCC9000E286E000E296E010E2A6E6AEC7FF01264
:10FCD90000010E396E36503710D8A476EF7EF078D1
:10FCE900EF7EF07CEF7EF0000E396EA8EF7EF044D7
:10FCF900C03AF036C0D9FF37C0DAFFDF500F0B38F2
:10FD09006E3A503818F80B38183A6E36C0D9FF37A2
:10FD1900C0DAFFDF38070B386E3846384638463ABE
:10FD2900503818C70B38183A6E36C0D9FF37C0DAC1
:10FD3900FFDFAE02D03A8E01D03A9E3A0E326E0003
:10FD49000E336EC4EC7DF03950120090EC7DF02733
:10FD59000E326E000E336E32EC7EF0260E326E00DD
:10FD69000E336E32EC7EF0250E326E000E336E329B
:10FD7900EC7EF0240E326E000E336E32EC7EF00310
:10FD89000E3C6E8A0E3B6E560EE82EFED73B2EFCBD
:10FD9900D73C2EFAD7270E326E000E336EF7EC7D64
:10FDA900F0260E326E000E336EF7EC7DF0250E3222
:10FDB9006E000E336EF7EC7DF0240E326E000E33BA
:10FDC9006EF7EC7DF0030E3C6E8A0E3B6E560EE824
:10FDD9002EFED73B2EFCD73C2EFAD7ACEF7EF00097
:10FDE900EF00F0010E306E28502910D8B4FFEF7ED5
:10FDF900F001EF7FF012EF7FF028C0D9FF29C0DAB8
:10FE0900FFDF30E832E832070B2A6E070E2A64104A
:10FE1900EF7FF012EF7FF047EF7FF0000E306E6852
:10FE2900EF7FF028C0D9FF29C0DAFFDF30E832E8D8
:10FE390032070B2A6E010E2B6E2A2A26EF7FF0D885
:10FE4900902B362A2E24EF7FF02B50FF0A2C6E2898
:10FE5900C0D9FF29C0DAFFDF50070B2D6E2D5002E4
:10FE69000D150EF324D96E000EF420DA6EDECF2EB6
:10FE7900F0DDCF2FF02EC0D9FF2FC0DAFF2C50DFD5
:10FE89001668EF7FF028C0D9FF29C0DAFFDFBC5020
:10FE9900EF7FF053EF7FF0010E54EF7FF0000E2A51
:10FEA9006E2B6A2B50000AD8B45DEF7FF068EF7FA4
:10FEB900F02A50000AD8B416EF7FF0010AD8B468C6
:10FEC900EF7FF068EF7FF030501200010E316E289D
:10FED900502910D8B473EF7FF075EF7FF086EF7F6C
:10FEE900F028C0D9FF29C0DAFFDF30E832E832074D
:10FEF9000B2B6E070E2B6484EF7FF086EF7FF0E902
:10FF0900EF7FF0000E316EFEEF7FF028C0D9FF2998
:10FF1900C0DAFFDF30E832E832070B2B6E010E2C16
:10FF29006E2B2A9AEF7FF0D8902C362B2E98EF7FE4
:10FF3900F028C0D9FF29C0DAFFDF50070B2D6E2D3D
:10FF490050020D0B0EF324D96E000EF420DA6EDE8A
:10FF5900CF2EF0DDCF2FF02EC0D9FF2FC0DAFF2C26
:10FF690050DF12FEEF7FF028C0D9FF29C0DAFFDF8A
:10FF790030E832E832070B2B6E010E2C6E2B2AC8A3
:10FF8900EF7FF0D8902C362B2EC6EF7FF02C50FF48
:10FF99000A2D6E28C0D9FF29C0DAFFDF50070B2EC2
:10FFA9006E2E50020D0B0EF324D96E000EF420DADA
:10FFB9006EDECF2FF0DDCF30F02FC0D9FF30C0DAA1
:10FFC900FF2D50DF16FEEF7FF02A502B6E2C6A2C86
:10FFD90050000AD8B4F3EF7FF086EF7FF02B500082
:10FFE9000AD8B4B8EF7FF0010AD8B48AEF7FF08657
:07FFF900EF7FF03150120010
:020000040020DA
:08000000FFFFFFFFFFFFFFFF00
:020000040030CA
:0E000000FF020F1EFF8381FF0FC00FE00F40B5
:00000001FF
